:100000000C9494050C94BC050C94BC050C94BC0594
:100010000C94BC050C94BC050C94BC050C94BC055C
:100020000C94BC050C94BC050C94BC050C94BC054C
:100030000C94BC050C94BC050C94BC050C94BC053C
:100040000C9487140C94BC050C947A130C945413E0
:100050000C94BC050C94BC050C94BC050C94BC051C
:100060000C94220C0C94BC05D71E6620A9201521E7
:1000700043216F2183219821DB40A4A62EAF2000CD
:10008000A1C8D300408DAED580A80102040810207D
:100090004080010204081020010204081020000022
:1000A0000000250028002B000404040404040404B8
:1000B00002020202020203030303030300006000C2
:1000C00000000000000000000000000000E0000050
:1000D000000000000000000000000001E00000003F
:1000E0000000000000000000000001F0000000001F
:1000F00000000000000000000003F000000000000D
:10010000000000000000000007F0000000000000F8
:100110000000000000000007F800000000000000E0
:100120000000000000000FF800000003C0007E0087
:100130000001E0007F0FF800000003C000FE000097
:1001400001E000FFEFF800000003C000FE00000126
:10015000E000FFFFF800000003C000F00000000F07
:10016000007FFE7FC0000003C000F00000000F0011
:100170003FFE7FF83FF1FBCFFCFEF3BC3DEFE01FFD
:10018000FE7FFF7FFBFFDFFEFEFFBC3DEFE01FC6F3
:10019000FFFF7FFBFFDFFEFEFFBC3DEFE00FE3C78D
:1001A000FE787BC3DE1EF0FFBC3DEF0007FF87FC3F
:1001B000787BC3DE1EF0F83C3DEF0001FFFFF0004E
:1001C0007BC3C01EF0F03C3DEF0001F37FE03FFB3E
:1001D000C3CFFEF0F03C3DEF0003E33F807FFBC365
:1001E000DFFEF0F03C3DEF0007E73C00787BC3DE2C
:1001F0001EF0F03C3DEF0007FFBE00787BC3DE1E23
:10020000F0F03C3DEF0007FFFE00787BC3DE1EF000
:10021000F03C3DEF000FFFFE007FFBFFDFFEF0F044
:100220003FFDEFE00FFFFF007FFBFFDFFEF0F03F41
:10023000FDEFE00FF9FF003E79F9CF9EF0F01F3D92
:10024000E7E01FF1FF0000000000000000000000D8
:10025000001F80FF007FFFFFFFFFFFFFFFFFFFE0AA
:100260001C007F007FFFFFFFFEB46D888D18E0004B
:10027000001F007FFFFFFFFE95AD7DB577E000001A
:100280000F007FFFFFFFFEA5AD9D8D19E00000066A
:10029000007FFFFFFFFEB5ADEDB57EE00000000082
:1002A000000180000000000000000000038000004A
:1002B0000000000000000007C00000000000000077
:1002C000000007C00000000000000000000FC00098
:1002D00000000000000000001FE00000000000001F
:1002E0000000001FE00000000000000000003FE0F0
:1002F0000000000000000000003FF00000000000CF
:10030000000000007FF0000000000000001FF87FE8
:10031000F0000000000000003FFE7FF00000000041
:100320000000003FFF7FF0000000000000001FFF02
:10033000FBE0000000000000000FFFF9FFC000001C
:10034000000000000FFFF9FFF800000000000007A8
:10035000FFF1FFFF00000000000003FC73FFFF80BF
:10036000000000000001FE3FFFFF800000000000D1
:1003700000FF1E0FFF000000000000007FFE1FFCBA
:10038000000000000000003FFFFFF8000000000038
:1003900000000FDFFFE0000000000000001F19FF59
:1003A000C0000000000000003F3CFF000000000013
:1003B0000000007E7CF800000000000000007FFECE
:1003C0007C0000000000000000FFFFFC00000000B7
:1003D00000000000FFFFFE0000000000000000FF22
:1003E000FFFE0000000000000001FFEFFE00000023
:1003F0000000000001FFCFFE00000000000000032D
:10040000FF07FE0000000000000003FC07FE0000E4
:10041000000000000003F003FE00000000000000E8
:10042000018000FE000000000000000000007E00CF
:100430000000000000000000003E0000000000007E
:10044000000000000C000000000000078000FC001D
:100450000003C0000000078001FC000003C0000092
:1004600000078001FC000003C0000000078001E0DD
:100470000000001E000000078001E00000001E00D8
:100480007FE3F79FF9FDE7787BDFC0FFF7FFBFFD54
:10049000FDFF787BDFC0FFF7FFBFFDFDFF787BDF4F
:1004A000C0F0F787BC3DE1FF787BDE00F0F787BC4A
:1004B0003DE1F0787BDE0000F787803DE1E0787B6E
:1004C000DE007FF7879FFDE1E0787BDE00FFF787A6
:1004D000BFFDE1E0787BDE00F0F787BC3DE1E0782E
:1004E0007BDE00F0F787BC3DE1E0787BDE00F0F7D3
:1004F00087BC3DE1E0787BDE00FFF7FFBFFDE1E078
:100500007FFBDFC0FFF7FFBFFDE1E07FFBDFC07CCB
:10051000F3F39F3DE1E03E7BCFC000000000000010
:100520000000000000FFFFFFFFFFFFFFFFFFFFC015
:10053000FFFFFFFFFD68DB111A31C0FFFFFFFFFD6A
:100540002B5AFB6AEFC0FFFFFFFFFD4B5B3B1A33EB
:10055000C0FFFFFFFFFD6B5BDB6AFDC0202020209A
:10056000202030382D31392D313900202020202015
:10057000202076312E3030002020202020436F6E46
:1005800074726F6C6C6572002020202020526566AA
:100590006C6F77002020202020417374726F536CA1
:1005A0006F74680054696D652C536574706F696E63
:1005B000742C496E7075742C4F757470757400438B
:1005C000005443204572726F72003530003135306F
:1005D00000323530005042004C46002C002C002CDC
:1005E000004572726F720000000000003E5B4F5BBE
:1005F0003E3E6B4F6B3E1C3E7C3E1C183C7E3C18C6
:100600001C577D571C1C5E7F5E1C00183C1800FFA9
:10061000E7C3E7FF0018241800FFE7DBE7FF3048D7
:100620003A060E2629792926407F050507407F05D1
:10063000253F5A3CE73C5A7F3E1C1C08081C1C3EC8
:100640007F14227F22145F5F005F5F06097F017FB6
:10065000006689956A606060606094A2FFA2940859
:10066000047E040810207E201008082A1C08081C9C
:100670002A08081E101010100C1E0C1E0C30383EDC
:100680003830060E3E0E06000000000000005F003D
:10069000000007000700147F147F14242A7F2A1209
:1006A00023130864623649562050000807030000EF
:1006B0001C2241000041221C002A1C7F1C2A080821
:1006C0003E08080080703000080808080800006034
:1006D000600020100804023E5149453E00427F4020
:1006E0000072494949462141494D331814127F107F
:1006F00027454545393C4A494931412111090736C9
:1007000049494936464949291E0000140000004065
:10071000340000000814224114141414140041225F
:10072000140802015909063E415D594E7C1211120E
:100730007C7F494949363E414141227F4141413E0A
:100740007F494949417F090909013E414151737F70
:100750000808087F00417F41002040413F017F0899
:100760001422417F404040407F021C027F7F0408EA
:10077000107F3E4141413E7F090909063E4151211A
:100780005E7F09192946264949493203017F010341
:100790003F4040403F1F2040201F3F4038403F63C4
:1007A0001408146303047804036159494D43007F1E
:1007B0004141410204081020004141417F040201EF
:1007C0000204404040404000030708002054547891
:1007D000407F284444383844444428384444287FDF
:1007E000385454541800087E090218A4A49C787F39
:1007F0000804047800447D40002040403D007F1004
:1008000028440000417F40007C047804787C080480
:1008100004783844444438FC182424181824241834
:10082000FC7C08040408485454542404043F442421
:100830003C4040207C1C2040201C3C4030403C443C
:10084000281028444C9090907C4464544C440008F8
:100850003641000000770000004136080002010226
:1008600004023C2623263C1EA1A161123A404020EE
:100870007A38545455592155557941225454784267
:10088000215554784020545579400C1E527212392B
:1008900055555559395454545939555454580000E4
:1008A000457C410002457D420001457C407D12119E
:1008B000127DF0282528F07C545545002054547CA6
:1008C000547C0A097F4932494949323A4444443AFE
:1008D000324A4848303A4141217A3A424020780031
:1008E0009DA0A07D3D4242423D3D4040403D3C24D4
:1008F000FF2424487E4943662B2FFC2F2BFF092918
:10090000F620C0887E090320545479410000447DBC
:10091000413048484A32384040227A007A0A0A7206
:100920007D0D19317D2629292F28262929292630B0
:10093000484D4020380808080808080808382F10D3
:10094000C8ACBA2F102834FA00007B000008142A23
:10095000142222142A14085500550055AA55AA55E8
:10096000AAFF55FF55FF000000FF00101010FF0008
:10097000141414FF001010FF00FF1010F010F014FA
:100980001414FC001414F700FF0000FF00FF1414FF
:10099000F404FC141417101F10101F101F1414144B
:1009A0001F00101010F0000000001F101010101F8A
:1009B00010101010F010000000FF10101010101098
:1009C000101010FF10000000FF140000FF00FF00D7
:1009D000001F10170000FC04F4141417101714144F
:1009E000F404F40000FF00F714141414141414F7A2
:1009F00000F7141414171410101F101F141414F4FB
:100A0000141010F010F000001F101F0000001F1441
:100A1000000000FC140000F010F01010FF10FF1494
:100A20001414FF141010101F00000000F010FFFF3E
:100A3000FFFFFFF0F0F0F0F0FFFFFF00000000000C
:100A4000FFFF0F0F0F0F0F3844443844FC4A4A4A47
:100A5000347E02020606027E027E0263554941632D
:100A60003844443C04407E201E2006027E02029947
:100A7000A5E7A5991C2A492A1C4C7201724C304AE0
:100A80004D4D303048784830BC625A463D3E494969
:100A900049007E0101017E2A2A2A2A2A44445F4411
:100AA0004440514A444040444A51400000FF010341
:100AB000E080FF000008086B6B083612362436060B
:100AC0000F090F0600001818000000101000304039
:100AD000FF0101001F01011E00191D1712003C3CFF
:100AE0003C3C0000000000000103070F1F3F7F0097
:100AF00080C0E0F0F8FCFE00000000240027002A7F
:100B0000000000000023002600290000000008006B
:100B100002010000030407000000000000000022A2
:100B200000FF2100ED24DE2411241FBECFEFD8E00A
:100B3000DEBFCDBF24E0A0EBB1E001C01D92A93320
:100B4000B207E1F711E0A0E0B1E0E6E5F4E502C0AC
:100B500005900D92A03BB107D9F715E0C3E9D5E0A8
:100B600004C02197FE010E942326C239D107C9F78C
:100B70000E94591A0C941E2A0C9400002F923F9246
:100B80004F925F926F927F928F929F92AF92BF929D
:100B9000CF92DF92EF92FF920F931F93CF93DF9349
:100BA000CDB7DEB76C970FB6F894DEBF0FBECDBFE2
:100BB0009C8F8B8F1B014A01198708873701A982F7
:100BC000DC0159964D915C915A974115510509F0F8
:100BD000FFC018968D919C911997681779070CF0B2
:100BE000E1C11A968D919C911B97881699060CF07D
:100BF000D9C1EC2DF0E0FB83EA83AB0166E0C69E31
:100C0000400D511D11245D874C87141615060CF0FC
:100C1000C9C18A2D90E09B878A8733E0880F991F8E
:100C20003A95E1F79F878E87880D991D181619064A
:100C30000CF0B8C158968C91811103C0203B08F08C
:100C40002F5FAB8DBC8DED91FC9111970680F781E4
:100C5000E02DCD012A8F09952A8DB5E02B9F9001BB
:100C60001124EC2DF0E0F98BE88BA1014B5F5F4F75
:100C70005B8B4A8B3D822C822101B9016219730979
:100C80007D8B6C8B9981892F90E09F8B8E8BD4010B
:100C90001896B98FA88FEC89FD89E40DF51DE951EF
:100CA000FA4FD49054019F828E82D0FE16C0AB8D35
:100CB000BC8DED91FC91B1E0CB1209C029812130AE
:100CC00031F40084F185E02D2885398519C002842E
:100CD000F385E02DE884F9841DC0488559856416A4
:100CE000750619F1AB8DBC8DED91FC91B1E0CB1285
:100CF0000DC02981213051F40084F185E02D93014C
:100D0000A501B2018B8D9C8D09950FC00284F385DE
:100D1000E02D73010A851B852A813B814E815F810D
:100D20006C817D818B8D9C8D0995D6943FEFA31AA4
:100D3000B30A4E815F816E897F89460F571F5F839B
:100D40004E83888D998DA816B90609F0AECF9FEF16
:100D5000491A590AAC81BD81E889F989AE0FBF1FD4
:100D6000BD83AC832A893B894216530609F093CF91
:100D7000488559856416750609F4F2C0AB8DBC8DA3
:100D8000ED91FC91B1E0CB1211C02981213071F4B9
:100D9000B1016B5F7F4F0484F585E02D830128E06E
:100DA00030E0A4018B8D9C8D0995DAC06C857D8522
:100DB0004A815B81641B750B0284F385E02D73010E
:100DC0000E851F859A01A4018B8D9C8D0995C8C045
:100DD000FA0134969491329765917491291BCB0155
:100DE000B7E02B9F800D911D1124FA0125913491BC
:100DF0003B8B2A8BFC01A590B490FC013296549059
:100E0000319634913C87329614913196749041E03A
:100E10004C1518F05981523068F0612F012E000CEA
:100E2000770B7B836A83872D072C000C990B9D839E
:100E30008C8304C01D821C821B821A82AB8DBC8DE8
:100E4000ED91FC9111970680F781E02DCD01099578
:100E5000412CD12C612CF981EF2FF0E0FF83EE8340
:100E60002C2D30E03B872A87A401470D511D77FCCC
:100E70005A955F8B4E8BB101610F711D17FD7A95ED
:100E8000798F688F5C85651608F06AC0262D30E082
:100E90004C815D81420F531F6E817F81469FC0014F
:100EA000479F900D569F900D1124DC01A80DB91D90
:100EB000B98BA88B842D712CEE89FF89E20FF31F6B
:100EC000FD8BEC8B751408F048C071E0780F7E87BD
:100ED000877041F4C5010196EA89FB89EA0DFB1D83
:100EE000D4905C01D7FE35C0AB8DBC8DED91FC91EB
:100EF000B1E0CB1212C02981213079F40084F18550
:100F0000E02D288539854C895D89688D798D670D3F
:100F1000711D8B8D9C8D09951CC08A819B81870DCD
:100F2000911D4A855B85849FB001859F700D949FBC
:100F3000700D1124620D731D0284F385E02DE88489
:100F4000F9840E811F819A01488959898B8D9C8D66
:100F50000995DD0C73948E85B5CF450C639492CFC3
:100F6000AB8DBC8DED91FC9111970288F389E02D3A
:100F7000CD016C960FB6F894DEBF0FBECDBFDF91EA
:100F8000CF911F910F91FF90EF90DF90CF90BF9086
:100F9000AF909F908F907F906F905F904F903F9019
:100FA0002F9009946C960FB6F894DEBF0FBECDBF9C
:100FB000DF91CF911F910F91FF90EF90DF90CF9035
:100FC000BF90AF909F908F907F906F905F904F9069
:100FD0003F902F9008958F929F92AF92CF92EF9271
:100FE000FF920F931F93CF93DF93EC01262F898DF0
:100FF0009A8D009709F042C06A3059F41D861C860C
:101000002D898E859F8538E0239F800D911D1124A9
:1010100043C06D3009F4AAC08F898823C9F03C8988
:101020008C859D8546E0349F800D911D1124488557
:1010300059854817590764F41D861C863D898E859D
:101040009F8548E0349F800D911D11249F878E87D6
:10105000EA88FB88088919894E855F856C857D85BE
:10106000AD88CC88CE010E94BE052C898C859D85DB
:1010700036E0239F800D911D11243EC06A3079F423
:101080001D861C862D89FC013696E4918E859F85F0
:101090002E9F800D911D11249F878E8767C06D3014
:1010A00009F464C0FC0134963491631708F45EC0FF
:1010B0003196E491E61708F459C0462F431B342FAC
:1010C000FC0132968590949047E0349F800C911CEF
:1010D0001124F401329634913196E491332311F0C6
:1010E000E1110DC0F4013496E4912C898C859D8525
:1010F000E29F800D911D11249D878C8737C0F401DC
:10110000359644915F89552319F15C89E32FF0E00E
:10111000E40FF11D47FDFA955E9FB0015F9F700DD2
:1011200011244C855D85460F571F688579856417A6
:10113000750774F41D861C863D89FC013696E49182
:101140008E859F853E9F800D911D11249F878E87E0
:10115000EA88FB88088919894E855F856C857D85BD
:10116000AD88CC88CE010E94BE05BCCF81E090E066
:10117000DF91CF911F910F91FF90EF90CF90AF90A3
:101180009F908F9008956F927F928F929F92AF92CF
:10119000BF92CF92DF92EF92FF920F931F93CF9364
:1011A000DF93EC014B015A0169013801E881F981B3
:1011B0000680F781E02D0995E881F9810684F7859D
:1011C000E02D87019601A501B401CE010995E881C2
:1011D000F981A501460D571D415051090684F78537
:1011E000E02D9601B401CE010995E881F9810484CE
:1011F000F585E02D9301A501B401CE010995E881A3
:10120000F981C80CD91CB601615071090484F585B7
:10121000E02D9301A501CE010995E881F9810288AD
:10122000F389E02DCE01DF91CF911F910F91FF90B7
:10123000EF90DF90CF90BF90AF909F908F907F9076
:101240006F900994CF92DF92EF92FF920F931F93CA
:10125000CF93DF9300D000D000D0CDB7DEB76C01C4
:10126000DC01ED91FC916217730789F404171507EF
:101270002CF4942F852FA801092F182F041B150B70
:1012800098012F5F3F4F008CF18DE02D12C0401769
:10129000510709F5261737072CF4962F872FB90128
:1012A000292F382F261B370B2F5F3F4F028CF38DD2
:1012B000E02D8701C601099526960FB6F894DEBF8A
:1012C0000FBECDBFDF91CF911F910F91FF90EF9097
:1012D000DF90CF9008950680F781E02D2D833E8327
:1012E0004B835C8369837A830995D601ED91FC91E8
:1012F0000088F189E02D2D813E814B815C816981DF
:101300007A81C6010995D601ED91FC910288F38995
:10131000E02DC60126960FB6F894DEBF0FBECDBFF6
:10132000DF91CF911F910F91FF90EF90DF90CF90C1
:101330000994EF92FF920F931F93DC01ED91FC91C2
:1013400011971A960D911C911B9718962D913C910F
:101350001997048CF58DE02D7B0140E050E060E0B2
:1013600070E009951F910F91FF90EF9008954F92B3
:101370005F926F927F928F929F92AF92BF92CF9225
:10138000DF92EF92FF920F931F93CF93DF9300D0E2
:10139000CDB7DEB76C015A0139014801DC01ED918E
:1013A000FC910680F781E02D69837A830995698134
:1013B000462E7A81572E640C751CD601ED91FC9156
:1013C000461457046CF40484F585E02D87019401DC
:1013D000A501B201C6010995BFEF4B1A5B0AEDCF1B
:1013E0000288F389E02DC6010F900F90DF91CF9115
:1013F0001F910F91FF90EF90DF90CF90BF90AF9033
:101400009F908F907F906F905F904F900994AF92D4
:10141000BF92CF92DF92EF92FF920F931F93CF93E1
:10142000DF9300D000D0CDB7DEB75C016901DC01ED
:10143000ED91FC910680F781E02D4B835C836983FD
:101440007A830995D501ED91FC9169817A819B019F
:101450002C0D3D1D215031090088F189E02D7801C6
:101460004B815C818A01C5010995D501ED91FC9103
:101470000288F389E02DC5010F900F900F900F9017
:10148000DF91CF911F910F91FF90EF90DF90CF9060
:10149000BF90AF900994AF92BF92CF92DF92EF923C
:1014A000FF920F931F93CF93DF9300D000D0CDB75F
:1014B000DEB75C016901DC01ED91FC910680F781EA
:1014C000E02D4B835C8369837A830995D501ED9187
:1014D000FC914B815C81C40ED51EB1E0CB1AD108C2
:1014E0000088F189E02D7801860169817A819B016C
:1014F000C5010995D501ED91FC910288F389E02D94
:10150000C5010F900F900F900F90DF91CF911F9119
:101510000F91FF90EF90DF90CF90BF90AF90099424
:101520000895EF92FF920F931F93DC01ED91FC91D0
:10153000048CF58DE02D09951F910F91FF90EF9090
:1015400008950F931F93DC01ED91FC91028CF38DB4
:10155000E02D09951F910F9108950F931F93DC01C2
:10156000ED91FC91008CF18DE02D09951F910F916B
:101570000895DC01ED91FC910480F581E02D099442
:1015800008952F923F924F925F926F927F928F9227
:101590009F92AF92BF92CF92DF92EF92FF920F9302
:1015A0001F93CF93DF9300D01F92CDB7DEB74C01CE
:1015B0007B836A836A01590117019801241B350B4B
:1015C00037FF03C0319521953109C5014A815B81FF
:1015D000841B950B97FF03C091958195910951E06C
:1015E00059838217930714F019820BC09A2D8B2D03
:1015F0005801092F182F9A818B81DB82CA82C92E4C
:10160000D82E8A819B81A816B9065CF49C2D8D2D5D
:101610006801092F182F9A818B81BB82AA82A92E7B
:10162000B82E2501AA81BB814A1A5B0A38016C18C1
:101630007D0877FE03C0719461947108720157FEB2
:1016400003C0BFEFEB1AFB0AF594E794C016D1066E
:101650001CF00FEF1FEF1FC001E010E01CC0D40111
:10166000ED91FC91B9810084F185E02D9101BB23BE
:10167000C1F04A815B81B601C4010995E618F708FB
:10168000F7FE04C0C00ED11EE40CF51CEA81FB81FC
:101690003196FB83EA834A815B81A416B506FCF68A
:1016A00004C0A6016A817B81E7CF0F900F900F9055
:1016B000DF91CF911F910F91FF90EF90DF90CF902E
:1016C000BF90AF909F908F907F906F905F904F9062
:1016D0003F902F90089585ED8093BC008091BC00D1
:1016E00084FDFCCF1092B201089540919D02262FF7
:1016F00030E0240F311D21323105DCF42091B2019C
:101700002430C9F4FC0180E090E0861758F4309151
:101710009D022191DC01A558BD4FA30FB11D2C9353
:101720000196F3CF80919D02680F60939D0280E047
:10173000089581E0089582E00895089581E090E0A1
:101740003091B4012091B301321710F480E090E0A1
:1017500091958195910908958091B4019091B3017B
:10176000891730F48F5F8093B40180E090E0089592
:101770008FEF9FEF08958091B30190E02091B40125
:10178000821B91090895CF92DF92EF92FF920F93FF
:101790001F93CF93DF937C01262F972F8A0180918F
:1017A000F202882391F0C62FD72F6E01C40ED51EEA
:1017B000CC15DD0571F06991D701ED91FC91019097
:1017C000F081E02DC7010995F3CF642F822F0E948D
:1017D000750BC801DF91CF911F910F91FF90EF9092
:1017E000DF90CF900895CF93DF931F92CDB7DEB7F0
:1017F00069832091F2022223D1F02091EF0220325E
:1018000040F021E030E0FC013383228380E090E06F
:1018100015C08091F002E82FF0E0E55AFD4F998164
:1018200090838F5F8093F0028093EF0205C061E0A8
:10183000CE0101960E94750B81E090E00F90DF9140
:10184000CF9108951F920F920FB60F9211242F93EC
:101850003F934F935F936F937F938F939F93AF9338
:10186000BF93EF93FF938091B900887F803609F48E
:101870009CC068F5883209F45BC090F4803109F4AB
:1018800054C038F4882309F4F6C0883009F44DC0F8
:10189000F6C0883109F44CC0803209F45DC0EFC055
:1018A000803409F468C048F4803309F455C08833A3
:1018B00009F0E5C08093C202D8C0803509F44FC05A
:1018C000883509F45DC0883409F0D9C0D6C088399C
:1018D00009F4C7C0A8F4883709F467C038F488361B
:1018E00009F463C0803709F460C0C9C0883809F4BE
:1018F000B8C0803909F45FC0803809F0C0C05BC04F
:10190000803B09F486C038F4803A09F466C0883A0E
:1019100009F47FC0B4C0803C09F4A7C0883C09F436
:10192000A4C0883B09F48AC0AAC08091E50210C017
:101930009091E4028091E302981770F5E091E4023F
:1019400081E08E0F8093E402F0E0ED53FD4F808143
:101950008093BB0085EC86C08093C2028EC0E0916C
:10196000E40281E08E0F8093E4028091BB00F0E0FE
:10197000ED53FD4F80839091E4028091E3026EC0AD
:10198000E091E40281E08E0F8093E4028091BB003D
:10199000F0E0ED53FD4F80838091B10181116DC066
:1019A00081E08093B00184EA61C083E08093B2015A
:1019B0001092C102CFCF8091C102803208F051C095
:1019C000E091C10281E08E0F8093C1028091BB0043
:1019D000F0E0EF55FD4F8083BDCF85EC8093BC00D8
:1019E0001092B2018091C102803230F4E091C102C4
:1019F000F0E0EF55FD4F10826091C10270E0E09180
:101A00009F02F091A00281EA92E009951092C10232
:101A100036C084E08093B20110929E0210929D0223
:101A2000E0919B02F0919C02099580919D028111A9
:101A300005C081E080939D0210927B02E0919E029E
:101A400081E08E0F80939E02F0E0E558FD4F80818B
:101A50008093BB0090919E0280919D02981708F49C
:101A600079CF85E88093BC000AC085EC8093BC00E8
:101A70001092B20104C01092C2020E946B0BFF913F
:101A8000EF91BF91AF919F918F917F916F915F91F6
:101A90004F913F912F910F900FBE0F901F9018956F
:101AA0009B01AC0160E074E284EF90E00E94ED29BC
:101AB000DA01C9014097A109B109B695A795979593
:101AC00087958093B80008952091EF029091F102DC
:101AD000213208F04AC08091B2018111FCCF32E07E
:101AE0003093B20131E03093B1013FEF3093C20245
:101AF0001092E4022093E302ABE5B2E043EC52E043
:101B0000FA013E2F341B321718F43D913193F9CF6F
:101B10001092E5022091E502990F922B9093E50235
:101B20009091B001913061F41092B0019091E50272
:101B30009093BB009091BC0093FDF8CF95EC01C051
:101B400095EE9093BC009091B2019230E1F39091A8
:101B5000C2029F3F79F08091C202803241F08091B1
:101B6000C202803331F084E005C081E003C082E02E
:101B700001C083E01092F0021092EF021092F20284
:101B80000895CF93CFB7F89480915A02811127C05E
:101B9000E2EBF0E08491E4E9F0E09491E82FF0E0EA
:101BA000EE0FFF1FE950F54FA591B491EC91E92399
:101BB00021F461E08AE00E94D51361E08AE00E948E
:101BC00005148CB580618CBD8CB580648CBD61E0E2
:101BD0008DE00E94051461E08BE00E940514809165
:101BE0005A028F5F80935A02CFBFCF9108958EE043
:101BF0000E94AC13892B81F080E10E94AC13892BE9
:101C000069F080E10E94AC13892B51F480E10E94BD
:101C1000AC13892B29F4089581E003C082E001C050
:101C200080E090E00895CF92DF92EF92FF920F93C1
:101C30001F93CF93DF936C017A018B01C0E0D0E05A
:101C4000CE15DF0589F0D8016D918D01D601ED919A
:101C5000FC910190F081E02DC6010995892B11F4CA
:101C60007E0102C02196ECCFC701DF91CF911F9179
:101C70000F91FF90EF90DF90CF900895FC01918D30
:101C8000828D981761F0828DDF01A80FB11D5D96DE
:101C90008C91928D9F5F9F73928F90E008958FEF4C
:101CA0009FEF0895FC01918D828D981731F0828D00
:101CB000E80FF11D858D90E008958FEF9FEF089557
:101CC000FC01918D228D892F90E0805C9F4F821BBB
:101CD00091098F739927089583EF92E00E94600E17
:101CE00021E0892B09F420E0822F0895FC01848DE6
:101CF000DF01A80FB11DA35ABF4F2C91848D90E036
:101D000001968F739927848FA689B7892C93A08910
:101D1000B1898C9180648C93938D848D981306C0C7
:101D20000288F389E02D80818F7D80830895EF9272
:101D3000FF920F931F93CF93DF93EC0181E0888F85
:101D40009B8D8C8D981305C0E889F989808185FD6C
:101D500024C0F62E0B8D10E00F5F1F4F0F7311275D
:101D6000E02E8C8DE8120CC00FB607FCFACFE88984
:101D7000F989808185FFF5CFCE010E94760EF1CFE3
:101D80008B8DFE01E80FF11DE35AFF4FF0820B8FA0
:101D9000EA89FB898081806207C0EE89FF896083C0
:101DA000E889F98980818064808381E090E0DF9117
:101DB000CF911F910F91FF90EF900895CF93DF93F4
:101DC000EC01888D8823C9F0EA89FB89808185FD33
:101DD00005C0A889B9898C9186FD0FC00FB607FC94
:101DE000F5CF808185FFF2CFA889B9898C9185FFD5
:101DF000EDCFCE010E94760EE7CFDF91CF9108950F
:101E000080E090E0892B29F00E946C0E81110C94E7
:101E100000000895833081F028F4813099F08230F9
:101E2000A1F008958730A9F08830B9F08430D1F45A
:101E3000809180008F7D03C0809180008F77809398
:101E40008000089584B58F7702C084B58F7D84BDEE
:101E500008958091B0008F7703C08091B0008F7D8E
:101E60008093B00008953FB7F8948091EB02909171
:101E7000EC02A091ED02B091EE0226B5A89B05C040
:101E80002F3F19F00196A11DB11D3FBFBA2FA92FF9
:101E9000982F8827820F911DA11DB11DBC01CD0176
:101EA00042E0660F771F881F991F4A95D1F7089562
:101EB0000F931F93CF93DF9377FF04C0260F371F35
:101EC00060E070E0DC011496CD91DC911597FB0188
:101ED000E20FF31FCE17DF071CF49E01261B370B02
:101EE000121613060CF046C0FA0157FD3796DF01B3
:101EF000E3E0B595A795EA95E1F7AC9FF001AD9FBA
:101F0000F00DBC9FF00D11246E0F7F1FDC015F965A
:101F1000ED91FC919097E60FF71F4770552781E0F0
:101F200090E001C0880F4A95EAF7482F013011056B
:101F300039F078F002301105E9F42E0F3F1F13C07D
:101F40002E0F3F1FE217F307A9F08081842B8193A6
:101F5000F9CF80952E0F3F1FE217F30759F09081BC
:101F600098239193F9CFE217F30721F0808184271A
:101F70008193F9CFDF91CF911F910F910895EF9247
:101F8000FF920F931F93CF93DF93EC0177FDA4C0D3
:101F9000EC80FD806E157F050CF09EC057FF04C0DD
:101FA000240F351F40E050E08E819F81FA01E20F3F
:101FB000F31F8E179F071CF49C01241B350B121670
:101FC00013060CF089C0922F842F869586958695EE
:101FD0008E9DD0018F9DB00D11246A0F7B1FAF8D98
:101FE000B8A1A60FB71F4770A9F188E0841B482F3E
:101FF000682F70E0FB01E151F54FE491281790F450
:10200000621B71092FEF30E002C0359527956A9564
:10201000E2F7E2230130110541F070F002301105C2
:1020200079F05AC00130110519F48C91E82B0AC0DF
:102030000130110508F049C0E0958C91E82302C0F9
:102040008C91E827EC932C813D81941708F444C0CF
:10205000A20FB31FE92FE41BE830F8F0023011059E
:1020600061F48E2F9C9190959C932C813D81A20FC1
:10207000B31F88508830B0F70FC081E001151105FB
:1020800009F480E081959E2F8C932C813D81A20FD5
:10209000B31F98509830C0F7E770EE23E9F0F0E0F6
:1020A000E951F54FE4910130110539F048F0023063
:1020B000110591F48C91E82706C08C91E82B03C0A0
:1020C000E0958C91E823EC9307C00230110509F4E8
:1020D000B7CFAE0DBF1DBECFDF91CF911F910F9136
:1020E000FF90EF9008950F931F93CF93DF93DC0140
:1020F0005696EC915697E23071F0E330E9F0E1301A
:1021000079F5FB0114960D90BC91A02DA41BB50B85
:10211000A21BB30B18C0EC01EC81FD81E61BF70B91
:10212000BF0161507109EE81FF81DF01A41BB50B76
:10213000AD01421B530B14C0DA01EC01EE81FF81AB
:10214000E61BF70B3197F7FD0DC0EC014E815F8167
:10215000E417F5073CF4AF01BD010E94580F02C01F
:102160000E94BF0FDF91CF911F910F9108950F93A0
:102170001F93DC015696EC915697E23061F0E33004
:1021800009F1E13081F51496ED91FC911597E41B6E
:10219000F50B319723C0DC011496ED91FC91159756
:1021A000DF01A61BB70BBD01DC011696ED91FC917A
:1021B0001797DF01A41BB50BAD0141505109621BFC
:1021C000730B11C0FA01DC0116964D915C911797C3
:1021D000DA01A61BB70BBD01621B730BAB01BF017C
:1021E0000E94BF0F0CC057FD0AC0DC011696ED918E
:1021F000FC9117974E175F0714F40E94580F1F9118
:102200000F910895FC0177FDB9C08085918568170D
:1022100079070CF0B3C057FDB1C08285938548178C
:1022200059070CF008958689823079F4848195816C
:10223000DC01A61BB70BBD01615071098681978136
:10224000DC01A41BB50BAD010EC0833009F084C0C6
:1022500064277527CB01842795276827792746812E
:102260005781481B590B415051092130310531F03C
:1022700048F12230310509F44AC00895CA0157FDDA
:1022800007969C01A3E035952795AA95E1F7A481CF
:10229000B5812A9FC0012B9F900D3A9F900D11246C
:1022A000680F791F078CF0A1E02DE60FF71F47702C
:1022B000552781E090E001C0880F4A95EAF79081A8
:1022C000892B48C0CA0157FD07969C0193E03595BC
:1022D00027959A95E1F7A481B5812A9FC0012B9F8C
:1022E000900D3A9F900D1124680F791F078CF0A173
:1022F000E02DE60FF71F4770552781E090E001C001
:10230000880F4A95EAF780959081892323C0CA01F6
:1023100057FD07969C0183E0359527958A95E1F74F
:10232000A481B5812A9FC0012B9F900D3A9F900DEB
:102330001124680F791F078CF0A1E02DE60FF71F1D
:102340004770552781E090E001C0880F4A95EAF771
:102350009081892780830895813009F086CF642792
:102360007527462757276427752784819581DC01C7
:10237000A61BB70BBD016150710977CF0895089571
:10238000FC016370668B8481958126813781613081
:1023900039F0633029F09187808733872287089549
:1023A000318720879387828708950E949929EF9229
:1023B000FF920F931F93CF93DF938C017B01C0E0BB
:1023C000D0E0F701EC0FFD1F6491662361F0D801A6
:1023D000ED91FC910190F081E02DC8010995892BC8
:1023E00011F02196EECFCE01DF91CF911F910F9189
:1023F000FF90EF9008956115710579F0FB01019050
:102400000020E9F73197AF01461B570BDC01ED9136
:10241000FC910280F381E02D099480E090E0089522
:102420004F925F926F927F92EF92FF920F931F9362
:10243000CF93DF93CDB7DEB7A1970FB6F894DEBF89
:102440000FBECDBF7C01FA01CB0119A2223008F4E6
:102450002AE08E010F5D1F4F422E512C612C712CF2
:10246000BF01A30192010E94ED29F901CA010150A7
:1024700011096A3014F4605D01C0695CD8016C9385
:10248000232B242B252B61F7B801C7010E94FB11D8
:10249000A1960FB6F894DEBF0FBECDBFDF91CF91EE
:1024A0001F910F91FF90EF907F906F905F904F90F2
:1024B00008954F925F926F927F928F929F92AF9208
:1024C000BF92CF92DF92EF92FF92CF93DF93EC0116
:1024D0006A017B01B22E9A01AB01C701B6010E94CD
:1024E0006728882319F061EA71E027C026013701C7
:1024F000E89477F82FEF3FEF4FE75FE7C301B201B2
:102500000E94672881110DC02FEF3FEF4FE75FE773
:10251000C301B2010E94962618161CF465EA71E008
:102520000CC02FEF3FEF4FE75FE4C701B6010E94F9
:10253000F52718169CF469EA71E0CE01DF91CF917E
:10254000FF90EF90DF90CF90BF90AF909F908F90D3
:102550007F906F905F904F900C94FB112FEF3FEFA7
:102560004FE75FECC701B6010E94962687FDE3CFD7
:1025700020E030E0A901C701B6010E94962687FF3E
:102580000EC0E881F9810190F081E02D6DE2CE016D
:1025900009954C01F7FAF094F7F8F09402C0812CF9
:1025A000912CA12C60E070E080E09FE3AB1441F03F
:1025B00020E030E040E251E40E949B26A394F6CF55
:1025C0009B01AC01C701B6010E942A262B013C01E8
:1025D0000E9414276B017C010E9443279B01AC01E0
:1025E000C301B2010E9429262B013C012AE0B70158
:1025F000A601CE010E9410127C01E80CF91CBB2040
:1026000039F06DEA71E0CE010E94FB11E80EF91E6F
:10261000DB2CDD2029F120E030E040E251E4C30171
:10262000B2010E94FA272B013C010E9414274B01A2
:10263000A12CB12C2AE0B501A401CE010E941012F8
:10264000E80EF91EC501B4010E9443279B01AC01AD
:10265000C301B2010E9429262B013C01DA94D9CF93
:10266000C701DF91CF91FF90EF90DF90CF90BF90A7
:10267000AF909F908F907F906F905F904F90089554
:102680000F931F93CF93DF93EC010E94D7118C011E
:102690006EE671E0CE010E94FB11800F911FDF9169
:1026A000CF911F910F9108951F920F920FB60F9225
:1026B00011242F933F934F935F936F937F938F9347
:1026C0009F93AF93BF93EF93FF9383EF92E00E94AA
:1026D000760EFF91EF91BF91AF919F918F917F9176
:1026E0006F915F914F913F912F910F900FBE0F907F
:1026F0001F9018951F920F920FB60F9211242F93CF
:102700008F939F93EF93FF93E0910303F091040362
:102710008081E0910903F0910A0382FD12C090814B
:1027200080910C038F5F8F7320910D03821751F0FE
:10273000E0910C03F0E0ED50FD4F958F80930C037A
:1027400001C08081FF91EF919F918F912F910F9008
:102750000FBE0F901F901895CF93DF93282F30E076
:10276000F901E55FF44F8491F901E657FF4FD491E9
:10277000F901E855FF4FC491CC2391F081110E94DB
:102780000A0FEC2FF0E0EE0FFF1FEF5FF44FA59163
:10279000B491EC91ED2381E090E021F480E002C05F
:1027A00080E090E0DF91CF9108951F93CF93DF9366
:1027B000282F30E0F901E55FF44F8491F901E657E5
:1027C000FF4FD491F901E855FF4FC491CC23C9F0D4
:1027D000162F81110E940A0FEC2FF0E0EE0FFF1F61
:1027E000E256FF4FA591B4918FB7F894111105C02F
:1027F0009C91ED2FE095E92302C0EC91ED2BEC9339
:102800008FBFDF91CF911F910895CF93DF9390E019
:10281000FC01E657FF4F2491FC01E855FF4F8491DE
:10282000882361F190E0880F991FFC01E950F54F72
:10283000C591D491FC01E256FF4FA591B49161116D
:1028400009C09FB7F8948881209582238883EC91F2
:102850002E230BC0623061F49FB7F8943881822F29
:10286000809583238883EC912E2B2C939FBF06C0E9
:102870008FB7F894E8812E2B28838FBFDF91CF91FB
:1028800008958F929F92AF92BF92CF92DF92EF9274
:10289000FF926B017C010E94330F4B015C01C1145C
:1028A000D104E104F104F1F00E94330FDC01CB010B
:1028B00088199909AA09BB09883E9340A105B10569
:1028C00070F321E0C21AD108E108F10888EE880E01
:1028D00083E0981EA11CB11CC114D104E104F104D1
:1028E00019F7DDCFFF90EF90DF90CF90BF90AF90C2
:1028F0009F908F9008952FB7F8946091E7027091A0
:10290000E8028091E9029091EA022FBF08951F9298
:102910000F920FB60F9211242F933F938F939F9393
:10292000AF93BF938091E7029091E802A091E902F2
:10293000B091EA023091E60223E0230F2D3720F414
:102940000196A11DB11D05C026E8230F0296A11D09
:10295000B11D2093E6028093E7029093E802A093D2
:10296000E902B093EA028091EB029091EC02A0910F
:10297000ED02B091EE020196A11DB11D8093EB0214
:102980009093EC02A093ED02B093EE02BF91AF9151
:102990009F918F913F912F910F900FBE0F901F909D
:1029A000189508958EBD00000DB407FEFDCF8EB5BD
:1029B00008951F93CF93DF93FC01858D968D00972B
:1029C00029F1162FEF0121A131E03093F20220937B
:1029D000F1021092F0021092EF02DC01ED91FC91F5
:1029E0000190F081E02D60E009958D8D9E8DDC01D8
:1029F000ED91FC910190F081E02D612F09958D8D75
:102A00009E8DDF91CF911F910C94640DA5A5B6A565
:102A10009C9183A9809589238C93838D948D892B98
:102A200031F0862FDF91CF911F910C94D21428E0C2
:102A300030E080E8A1A5B2A591A9482F462319F05E
:102A40004C91942B03C04C91909594239C93A3A5F7
:102A5000B4A54C9192A9942B9C93A3A5B4A54C9199
:102A600092A9909594239C9386952150310911F752
:102A7000DF91CF911F9108958CBD9DBD08951F9347
:102A8000CF93DF93EC01162F8D8D9E8D892B39F01E
:102A90006DA97EA98FA998AD0E94500D0FC08B8D96
:102AA0009C8D892B21F08EAD9FAD0E943C15EFA52A
:102AB000F8A990818CA9809589238083111102C087
:102AC00066EA01C067EACE010E94D9148D8D9E8D01
:102AD000892B49F069AD7AAD8BAD9CADDF91CF917B
:102AE0001F910C94500DEFA5F8A990818CA9892B0A
:102AF0008083DF91CF911F9108952091B30330918E
:102B0000B403C901079697FD079623E0959587952D
:102B10002A95E1F72091B1033091B203829FA00181
:102B2000839F500D929F500D112460E070E08091C2
:102B3000CC039091CD030C949E29FF920F931F9389
:102B4000CF93DF93EC01F62E8091CA039091CB03D3
:102B5000009709F451C02091CE0331E03093F20286
:102B60002093F1021092F0021092EF02DC01ED913D
:102B7000FC910190F081E02D60E009958E01D1E09B
:102B8000CF0DFF24F3948091CA039091CB03C0171B
:102B900061F1D032C8F00E94640D8091CE03F092B2
:102BA000F2028093F1021092F0021092EF028091F3
:102BB000CA039091CB03DC01ED91FC910190F0816F
:102BC000E02D60E00995D1E08091CA039091CB039C
:102BD000F8016491DC01ED91FC910190F081E02D10
:102BE0000995DF5F0F5F1F4FCECFDF91CF911F9110
:102BF0000F91FF900C94640DE091DA03F091DB03E8
:102C000020818091E0038095822380838E01C60F0E
:102C1000C017C1F1F80184912091C8033091C90314
:102C2000232B19F00E94D2142AC028E030E040E89B
:102C3000E091D603F091D7039091DE03542F5823EF
:102C400019F05081952B03C0508190959523908366
:102C5000E091D803F091D90350819091DF03952B37
:102C60009083E091D803F091D90350819091DF03D4
:102C7000909595239083469521503109C9F60F5FB1
:102C80001F4FC6CFDF91CF911F910F91FF900895F5
:102C9000CF92DF92EF92FF920F931F93CF93DF9328
:102CA0001F92CDB7DEB78091CA039091CB03892BD9
:102CB00059F06091E2037091E3038091E4039091F5
:102CC000E5030E94500D16C08091C8039091C9037E
:102CD000892B31F08091EB039091EC030E943C151D
:102CE000E091DC03F091DD0390818091E103809518
:102CF0008923808365E08FE19BE00E949D156091B0
:102D0000B10361508DEA93E00E94D9142091B3037E
:102D10003091B403C901079697FD079623E0959576
:102D200087952A95E1F72091B1033091B203829FF4
:102D30008001839F100D929F100D1124E090CC0311
:102D4000F090CD038091CA039091CB030E0D1F1D0F
:102D5000009709F44EC02091CE0331E03093F20287
:102D60002093F1021092F0021092EF02DC01ED913B
:102D7000FC910190F081E02D60E40995670121E06C
:102D8000FF24F3948091CA039091CB03C016D1061F
:102D900069F12032C8F00E94640D8091CE03F09258
:102DA000F2028093F1021092F0021092EF028091F1
:102DB000CA039091CB03DC01ED91FC910190F0816D
:102DC000E02D60E4099521E08091CA039091CB0346
:102DD000F60161916F01DC01ED91FC910190F081B0
:102DE000E02D2983099529812F5FCCCF0E94640DA6
:102DF00043C0E091DA03F091DB0390818091E0031E
:102E0000892B8083E016F106B9F1F70181917F01EA
:102E10002091C8033091C903232B19F00E94D214CA
:102E2000F1CF28E030E040E8E091D603F091D703FD
:102E30009091DE03542F582319F05081952B03C035
:102E40005081909595239083E091D803F091D90318
:102E500050819091DF03952B9083E091D803F091FE
:102E6000D90350819091DF039095952390834695E7
:102E700021503109C9F6C6CF8091CA039091CB0386
:102E8000892B99F06091E6037091E7038091E80344
:102E90009091E9030F90DF91CF911F910F91FF90D7
:102EA000EF90DF90CF900C94500DE091DC03F09107
:102EB000DD0390818091E103892B80838091C80399
:102EC0009091C903892B59F00F90DF91CF911F91F9
:102ED0000F91FF90EF90DF90CF900C94D1140F9052
:102EE000DF91CF911F910F91FF90EF90DF90CF90E6
:102EF00008953F924F925F926F927F928F929F922E
:102F0000AF92BF92CF92DF92EF92FF920F931F93F7
:102F1000CF93DF9300D000D000D0CDB7DEB72C0127
:102F20003B014A015901C901079697FD07969C018B
:102F300093E0359527959A95E1F73A832983C12C3B
:102F4000D12CE12CF12C312CC701860D971D9C83CF
:102F50008B83E016F106CCF51E821D82ED81FE8189
:102F6000EA15FB0554F58D819E8187709927892B81
:102F700011F0330C0EC0ED81FE81F7FD379683E032
:102F8000F595E7958A95E1F7EC0DFD1DE80DF91D26
:102F9000349037FE0CC021E030E04B815C816D81C4
:102FA0007E81640D751D8DEA93E00E94B90A8D81C2
:102FB0009E8101969E838D83D1CFFFEFEF1AFF0A8A
:102FC00029813A81C20ED31EBFCF26960FB6F89440
:102FD000DEBF0FBECDBFDF91CF911F910F91FF904C
:102FE000EF90DF90CF90BF90AF909F908F907F90A9
:102FF0006F905F904F903F9008956F927F928F9265
:103000009F92AF92BF92CF92DF92EF92FF920F9377
:103010001F93CF93DF9300D000D0CDB7DEB7809160
:10302000A00381113BC061E080919B030E940514C5
:1030300061E080919B030E94D51380919003909151
:103040009103892B19F00E94C10D23C061E080918A
:103050009C030E94051480919A038B7F11F460E019
:1030600001C061E080919C030E94D51380919D0373
:103070008F3F41F061E00E94051461E080919D0363
:103080000E94D51380919E038F3F19F060E00E944B
:10309000051481E080939F038093A0038FEF9FEF3F
:1030A000DC0189839A83AB83BC83809190039091E8
:1030B0009103892B41F0E0919203F0919303808179
:1030C00091810E943C1560E080919B030E94D51382
:1030D0008091900390919103892B09F0AAC08E01F1
:1030E0000F5F1F4F3E0185E0680E711CE7E0AE2EBA
:1030F000B12C88248394912CF801E080809198036E
:1031000090919903892BD1F480E090E040E0F12C7C
:103110009701082E02C0359527950A94E2F7217091
:103120003327B501681B790B01C0220F6A95EAF7B6
:10313000422B01968830910559F7E42E77E0C72E8F
:10314000D12CF12CFF0C80919A03811120C0809129
:103150009D038F3F49F0B4010C2C01C0660F0A9407
:10316000EAF76E210E94D51361E080919C030E94D2
:10317000D51380919E038F3F29F00E94AC13892BB9
:1031800009F0C3C060E080919C030E94D513809138
:103190009A03843001F561E080919C030E94D5136D
:1031A00080919D038F3F49F0B4010C2C01C0660F44
:1031B0000A94EAF76E210E94D51360E080919C0387
:1031C0000E94D51380919E038F3F29F00E94AC137B
:1031D000892B09F09EC0F1E0CF1AD10808F0B2CFD8
:1031E0004F2D8091980390919903892BD1F480E021
:1031F00090E040E06F2D70E09B01082E02C03595F5
:1032000027950A94E2F721703327F501E81BF90BA3
:1032100001C0220FEA95EAF7422B0196883091050A
:1032200059F7F80141938F01E615F70509F064CFCE
:1032300018C089818EBDFE013196DE011296CE0145
:103240000496E817F90741F03D910DB407FEFDCF54
:103250002EB53EBD2193F5CF0DB407FEFDCF8EB543
:103260008C8361E080919B030E94D5138091900331
:1032700090919103892B11F00E94D1146981862FBE
:1032800090E0A0E0B0E0BA2FA92F982F88272A81DC
:10329000822BBA2FA92F982F88272B81822BBA2F08
:1032A000A92F982F88272C81822B8C019D010770D4
:1032B000112722273327012B022B032B09F5B7FFF8
:1032C0000DC032E1B695A795979587953A95D1F7B8
:1032D000BC01CD01706C8F6F9F6F09C0BC01CD0127
:1032E00022E195958795779567952A95D1F70E9464
:1032F000452720E030E040E85EE30E94FA270DC059
:1033000060E070E080EC9FE708C0FF2DF160FF2EC9
:1033100039CF8F2D8160F82E5ECF0F900F900F90D8
:103320000F90DF91CF911F910F91FF90EF90DF9061
:10333000CF90BF90AF909F908F907F906F900895A7
:103340004F925F926F927F928F929F92AF92BF92B5
:10335000CF92DF92EF92FF926B017C01A090130459
:10336000B090140420E030E0A9010E94962687FD69
:1033700093C081E0AA94AB2809F080E080933404E4
:10338000812C912C86E9A82E83E4B82E8092F90333
:103390009092FA03A092FB03B092FC038DEC9CEC9C
:1033A000ACE4BDE38093FD039093FE03A093FF0381
:1033B000B0930004C0920104D0920204E09203048E
:1033C000F0920404609127047091280480912904EC
:1033D00090912A040E94432720E030E04AE754E419
:1033E0000E949B262B013C018092050490920604CA
:1033F000A0920704B09208042DEC3CEC4CE45DE391
:103400000E94FA274B015C016093090470930A043F
:1034100080930B0490930C04A3019201C701B601A1
:103420000E949B266B017C0160930D0470930E0437
:1034300080930F04909310048091110490911204D2
:10344000019751F580E090E0A6E9B3EC8093050484
:1034500090930604A0930704B0930804A501940177
:1034600060E070E0CB010E9429266093090470930C
:103470000A0480930B0490930C04A701960160E06A
:1034800070E0CB010E94292660930D0470930E0416
:1034900080930F0490931004FF90EF90DF90CF90F3
:1034A000BF90AF909F908F907F906F905F904F9064
:1034B0000895CF93DF93CDB7DEB763970FB6F89437
:1034C000DEBF0FBECDBF789484B5826084BD84B565
:1034D000816084BD85B5826085BD85B5816085BD0F
:1034E00080916E00816080936E00109281008091C7
:1034F000810082608093810080918100816080934F
:103500008100809180008160809380008091B10073
:1035100084608093B1008091B00081608093B0009E
:1035200080917A00846080937A0080917A00826032
:1035300080937A0080917A00816080937A008091F4
:103540007A00806880937A001092C10060ED77E085
:1035500080E090E00E94411480E090E00E94A52964
:10356000823030F490E0909347028093460209C085
:1035700060E080E090E00E94AD2910924702109236
:10358000460260E085E00E94D51361E085E00E947C
:10359000051460E086E00E94D51361E086E00E9499
:1035A000051461E086E00E94D5138091CC039091D0
:1035B000CD03892B11F52091B3033091B403C901D8
:1035C000079697FD0796B3E095958795BA95E1F72D
:1035D0002091B1033091B203AC01429FC001439FDF
:1035E000900D529F900D11240E946C289093CD0352
:1035F0008093CC03892B09F40BC10E947D15809127
:10360000B3039091B4038132910514F40C94EB232D
:10361000BC016054710977FF02C06F5F7F4F7595E1
:1036200067958091B1039091B2038255910997FDFE
:10363000019600E410E022E530E04CE952E0959577
:1036400087950E94791782E08093CF038091CA0307
:103650009091CB03892B11F40C9404248DE3809377
:10366000CE031092B4011092B3011092F0021092A6
:10367000EF021092B20181E08093B1011092B0018B
:1036800061E082E10E94D51361E083E10E94D513DD
:103690008091B9008E7F8093B9008091B9008D7FB1
:1036A0008093B90088E48093B80085E48093BC00DF
:1036B0008091D50387FD1EC061E00E94051461E082
:1036C0008091D5030E94D51361E070E080E090E026
:1036D0000E94411460E08091D5030E94D5136AE0F6
:1036E00070E080E090E00E94411461E08091D50399
:1036F0000E94D5138091CA039091CB03892B11F4BA
:103700000C9493246091E2037091E3038091E403AD
:103710009091E5030E94500D64E086E890E00E94DD
:103720009D156091B30361508DEA93E00E94D91416
:1037300064E082E890E00E949D158091CF03813083
:1037400011F40C94AB2464E18DEA93E00E94D91447
:1037500064E08EE790E00E949D158FE88093EA0375
:103760008091B1039091B2038038910511F00C94CF
:10377000B1248091B3039091B4038034910511F08A
:103780000C94C3248091CF03813011F40C94AE24A7
:103790008FEC8093EA0312E16AED8DEA93E00E94D8
:1037A000D914612F8DEA93E00E94D91461E88DEA63
:1037B00093E00E94D9146091EA038DEA93E00E949D
:1037C000D91469ED8DEA93E00E94D9148091CF035A
:1037D000813011F40C94C62461EF8DEA93E00E94CD
:1037E000D91466E088E790E00E949D158091CA0395
:1037F0009091CB03892B11F40C94C9246091E603BA
:103800007091E7038091E8039091E9030E94500DC5
:103810000E94481660E086E00E94D51360ED77E0D4
:1038200080E090E00E9441140E947D1581E0809329
:10383000C1038093C20381E090E09093C003809322
:10384000BF039093BE038093BD031092BA031092FE
:10385000B9031092BC031092BB0364E975E08DEAD2
:1038600093E00E94401368E875E08DEA93E00E94BF
:10387000401368E775E08DEA93E00E9440136EE61E
:1038800071E08DEA93E00E94FB116BE675E08DEA32
:1038900093E00E9440136EE671E08DEA93E00E948F
:1038A000FB116CE575E08DEA93E00E9440130E94E5
:1038B000481668EB7BE080E090E00E9441140E9493
:1038C0007D15E0910303F091040382E08083E09191
:1038D000FF02F09100031082E0910103F0910203D6
:1038E00080E1808310920B03E0910703F0910803BD
:1038F00086E08083E0910503F0910603808180617A
:103900008083E0910503F0910603808188608083C5
:10391000E0910503F0910603808180688083E09147
:103920000503F091060380818F7D808380ED97E011
:103930009093C8018093C7010E947B1460934E024C
:1039400070934F0280935002909351020E947B1417
:1039500060935602709357028093580290935902D5
:103960000E947B14609348027093490280934A023C
:1039700090934B0229E0222E312C0E947B1400915F
:1039800056021091570220915802309159020617A1
:1039900017072807390770F5D901C80188519C4FCE
:1039A000AF4FBF4F8093560290935702A093580297
:1039B000B09359020E94FD176093F5037093F603CC
:1039C0008093F7039093F8039B01AC010E94672852
:1039D000882381F087E090E0909355028093540211
:1039E000109253021092520261EE75E083EF92E062
:1039F0000E9440130E947B1400914E0210914F02CE
:103A000020915002309151020617170728073907F5
:103A100008F065C0D901C80188519C4FAF4FBF4F16
:103A200080934E0290934F02A0935002B0935102A4
:103A30008091520290915302019709F050C0409139
:103A40004C0250914D024F5F5F4F50934D02409397
:103A50004C0260E070E02AE083EF92E00E941012D6
:103A60006FED75E083EF92E00E94D7114091ED0376
:103A70005091EE036091EF037091F00322E083EF29
:103A800092E00E9459126DED75E083EF92E00E9482
:103A9000D7114091F5035091F6036091F7037091AF
:103AA000F80322E083EF92E00E9459126BED75E07B
:103AB00083EF92E00E94D7114091F1035091F203FD
:103AC0006091F3037091F40322E083EF92E00E948F
:103AD00059126EE671E083EF92E00E94FB110E94A2
:103AE0007B14009148021091490220914A023091C2
:103AF0004B02061717072807390708F04CC1D901F0
:103B0000C8018C599F4FAF4FBF4F8093480290938D
:103B10004902A0934A02B0934B020E947D1582E0B5
:103B20008093C1038093C2031092BA031092B90329
:103B30001092BC031092BB03E0915402F091550225
:103B4000EE0FFF1FE65FFE4F608171818DEA93E00B
:103B50000E94FB1181E08093C1038093C203A3E71D
:103B6000B0E0B093BA03A093B9031092BC031092D3
:103B7000BB038091460290914702892B19F468EDAE
:103B800075E002C065ED75E08DEA93E00E94D71103
:103B90001092BA031092B903E2E1F0E0F093BC0393
:103BA000E093BB0361ED75E08DEA93E00E94D711CD
:103BB0001092BA031092B90324E230E03093BC03B0
:103BC0002093BB036DEC75E08DEA93E00E94D71162
:103BD0001092BA031092B90346E350E05093BC032D
:103BE0004093BB036AEC75E08DEA93E00E94D71125
:103BF000EE24E394F12C0FE310E022E130E042E107
:103C000050E062E170E08DEA93E00E9422092FE724
:103C100030E04FE350E062E170E08DEA93E00E9413
:103C200022098091540290915502079769F480E52A
:103C300090E09093BA038093B9033092BC03209232
:103C4000BB0361EC75E044C0C090F503D090F6036F
:103C5000E090F703F090F80320E030E040E251E418
:103C6000C701B6010E94962687FF03C08BE590E04E
:103C70000CC020E030E048EC52E4C701B6010E94DD
:103C8000962687FF07C085E590E09093BA0380935E
:103C9000B90306C0A0E5B0E0B093BA03A093B9039E
:103CA0003092BC032092BB0322E0B701A6018DEA4B
:103CB00093E00E945912E091AD03F091AE030190A0
:103CC000F081E02D67EF8DEA93E009956FEB75E0E9
:103CD0008DEA93E00E94D711809152029091530295
:103CE000019709F040C020914C0230914D02809123
:103CF00044029091450282179307A8F5C90163E039
:103D000070E00E940F26892B71F5309345022093B5
:103D100044026091F5037091F6038091F70390914E
:103D2000F803309143023E36F0F421E0230F209354
:103D30004302232F30E089010B521E4F0E940D27B2
:103D40009B01AC01A4EDBFEF0E94E8292AEF30E00F
:103D500040E050E00E94BB29DA01C901CF96A11DC5
:103D6000B11DF801808310E080914302181788F498
:103D7000612F70E0FB01EB52FE4F408150E06E5E20
:103D80007F4F21E030E08DEA93E00E9402111F5F37
:103D9000EBCF0E944816E0915402F0915502E830B2
:103DA000F10508F0D3C2EC5CFF4F0C94232620E011
:103DB00030E048E452E46091F5037091F60380919D
:103DC000F7039091F8030E94F52787FD03C086E072
:103DD00090E077C18091D3019091D401019709F0CF
:103DE000B5C264EA75E083EF92E00E94401310923E
:103DF0004D0210924C02109245021092440280E053
:103E0000E82FF0E0EB52FE4F10828F5F8E36C1F745
:103E1000109243020E947B146093CF017093D001F3
:103E20008093D1019093D20180E090E0A6E1B3E4C9
:103E30008093ED039093EE03A093EF03B093F00310
:103E40008091460290914702892B99F488EC8093E7
:103E5000CE018AEF8093CD0128E233E240E050E0CA
:103E60002093C9013093CA014093CB015093CC01F8
:103E700012C084EB8093CE0180EE8093CD0180E16F
:103E800097E2A0E0B0E08093C9019093CA01A093AB
:103E9000CB01B093CC016091C7017091C801072E8E
:103EA000000C880B990B0E9445276B017C0120E0D8
:103EB00030E0A9010E9496261091330418160CF0E8
:103EC00069C010922B0410922C0410922D041092B1
:103ED0002E04C0922F04D0923004E0923104F0926C
:103EE0003204112309F456C060901704709018042E
:103EF000D3018D909D90AD90BC90A7019601C50116
:103F0000B4010E94F527181634F4F301C082D1825F
:103F1000E282F3820FC020E030E0A901C501B401C4
:103F20000E94962687FF06C0D3011D921D921D9206
:103F30001C92139780901F0490902004A09021045D
:103F4000B0902204C0902F04D0903004E09031044F
:103F5000F0903204A7019601C501B4010E94F52733
:103F6000181684F0C0902B04D0902C04E0902D04FF
:103F7000F0902E04A7019601C501B4010E94962677
:103F800087FF08C0C0921F04D0922004E092210451
:103F9000F0922204609127047091280480912904F2
:103FA00090912A040E9443279B01AC0160E070E0DD
:103FB0008AE794E40E949B266B017C019B01AC0183
:103FC0006091090470910A0480910B0490910C0493
:103FD0000E94FA276093090470930A0480930B04EB
:103FE00090930C04A701960160910D0470910E044A
:103FF00080910F04909110040E949B2660930D0401
:1040000070930E0480930F049093100428EE33E015
:1040100040E050E020932704309328044093290483
:1040200050932A04111148C0E0911704F09118042C
:10403000C080D180E280F380C0921F04D09220041F
:10404000E0922104F0922204E0911504F09116040C
:1040500080819181A281B381809323049093240471
:10406000A0932504B093260480902F0490903004F0
:10407000A0903104B0903204A5019401C701B601AB
:104080000E94F527181684F080902B0490902C0441
:10409000A0902D04B0902E04A5019401C701B60193
:1040A0000E94962687FF08C080921F0490922004E9
:1040B000A0922104B092220481E08093330481E035
:1040C00090E0909355028093540240C181E090E0CB
:1040D000909353028093520220E030E046E153E493
:1040E0006091F5037091F6038091F7039091F803C6
:1040F0000E94F52787FD2AC10E947B140091C90107
:104100001091CA012091CB013091CC01DC01CB018F
:10411000800F911FA21FB31F8093C3019093C4010E
:10412000A093C501B093C60160E070E08AE793E414
:104130000E94A01980E090E0ABE1B3E48093ED032E
:104140009093EE03A093EF03B093F00382E090E02E
:10415000B8CF0E947B140091C3011091C40120913B
:10416000C5013091C601061717072807390708F05F
:10417000EDC00E947B140091C9011091CA012091E9
:10418000CB013091CC01DC01CB01800F911FA21F2C
:10419000B31F8093C3019093C401A093C501B09352
:1041A000C60120E030E040EA50E46091ED037091F8
:1041B000EE038091EF039091F0030E942A266B0199
:1041C0007C016093ED037093EE038093EF03909373
:1041D000F0036091CE0170E080E090E00E944527FE
:1041E0009B01AC01C701B6010E94F52718160CF01F
:1041F000ADC060E070E08FEA93E40E94A019609186
:10420000CD0170E080E090E00E9443276093ED03D1
:104210007093EE038093EF039093F003A3E0B0E07C
:10422000B0935502A093540291C06091CD0170E00B
:1042300065507109072E000C880B990B0E944527C9
:104240009B01AC016091F5037091F6038091F70337
:104250009091F8030E94F52787FD78C060E070E038
:104260008FEA93E40E94A01980E090E0A8ECB2E409
:104270008093ED039093EE03A093EF03B093F003CC
:1042800084E090E01ECF20E030E048EC52E4609102
:10429000F5037091F6038091F7039091F8030E9463
:1042A000962618160CF452C00E947B14DC01CB0138
:1042B00088519C4FAF4FBF4F8093BF019093C00177
:1042C000A093C101B093C20161E086E00E94D513C2
:1042D000109253021092520285E090E0F2CE0E94BA
:1042E0007B140091BF011091C0012091C101309158
:1042F000C201061717072807390740F560E086E076
:104300000E94D51310C020E030E048E452E46091F0
:10431000F5037091F6038091F7039091F8030E94E2
:10432000962687FF13C010925502109254020EC0B9
:104330000E94FD179B01AC010E946728882399F316
:10434000E7E0F0E0F0935502E09354028091D3014E
:104350009091D4018130910579F48091520290912D
:104360005302019741F5109253021092520210929B
:104370005502109254021FC00297E9F48091540232
:1043800090915502892BB9F4809146029091470291
:10439000892B41F481E090E090934702809346029C
:1043A00061E005C0109247021092460260E080E092
:1043B00090E00E94AD291092D4011092D301809117
:1043C000BD019091BE018130910509F182309105C6
:1043D00009F44BC0892B09F054C00E94F70D90934B
:1043E000BC018093BB01009709F44BC09093BA01C4
:1043F0008093B9010E947B146093B5017093B6015C
:104400008093B7019093B80181E090E029C00E94A9
:10441000F70D7C019093BC018093BB018091B901A1
:104420009091BA01E816F90641F50E947B140091BB
:10443000B5011091B6012091B7013091B801DC01AE
:10444000CB01801B910BA20BB30B85369105A10507
:10445000B105B8F0F092D401E092D30182E090E08F
:104460009093BE018093BD010CC00E94F70D909304
:10447000BC018093BB01892B21F41092BE011092E4
:10448000BD018091520290915302019709F09CC1A5
:104490000E947B1469837A838B839C83809133048D
:1044A000882309F444C10E947B146D837E838F832B
:1044B000988780911B0490911C04A0911D04B091D9
:1044C0001E044D815E816F817885481B590B6A0BF4
:1044D0007B0B8091270490912804A0912904B0912E
:1044E0002A04481759076A077B0708F420C1E0919E
:1044F0001504F09116044080518062807380E09131
:104500001904F0911A04A3019201608171818281E2
:1045100093810E9429266B017C0120912304309114
:1045200024044091250450912604C301B2010E9445
:10453000292669877A878B879C8720910904309187
:104540000A0440910B0450910C04C701B6010E946B
:10455000FA2720911F0430912004409121045091AA
:1045600022040E942A264B015C0160931F04709371
:1045700020048093210490932204F0913404FD8759
:10458000F1111CC0209105043091060440910704EC
:104590005091080469857A858B859C850E94FA274D
:1045A0009B01AC01C501B4010E94292660931F0440
:1045B00070932004809321049093220420911F047F
:1045C0003091200440912104509122042E873F878E
:1045D000488B598B00912F04109130043091310495
:1045E0003B8B409132044A8B98014B895A896E85E6
:1045F0007F85888999890E94F527181664F4C80177
:10460000AB89BA8980931F0490932004A09321045E
:10461000B09322041AC080902B0490902C04A09098
:104620002D04B0902E04A50194016E857F858889A4
:1046300099890E94962687FF08C080921F04909255
:104640002004A0922104B09222045D85552379F0C4
:10465000209105043091060440910704509108040C
:10466000C701B6010E94FA276B017C0103C0C12C6F
:10467000D12C760120910D0430910E0440910F044D
:104680005091100469857A858B859C850E94FA2754
:104690009B01AC0160911F04709120048091210462
:1046A000909122040E9429269B01AC01C701B6010A
:1046B0000E942A266B017C0198014B895A890E942D
:1046C000F5271816ACF000912B0410912C04809162
:1046D0002D048B8B90912E049A8B9801AC01B6011E
:1046E000C7010E94962687FD03C08601EB8AFA8ADD
:1046F000E0911704F0911804C801AB89BA8980834E
:104700009183A283B3834092230450922404609245
:104710002504709226042D813E814F815885209377
:104720001B0430931C0440931D0450931E0480917D
:10473000CF019091D001A091D101B091D2014091CF
:10474000C7015091C801052E000C660B770B09813B
:104750001A812B813C81081B190B2A0B3B0B40173C
:1047600051076207730760F4840F951FA61FB71FD8
:104770008093CF019093D001A093D101B093D20147
:104780008091CF019091D001A091D101B091D2013F
:1047900029813A814B815C81281B390B4A0B5B0BC9
:1047A000CA01B9010E9443279B01AC016091F1034A
:1047B0007091F2038091F3039091F4030E94F52726
:1047C000181614F461E001C060E085E00E94D51382
:1047D0000E94000FD2C8BC016052710977FF02C06D
:1047E0006F5F7F4F759567958091B1039091B2038C
:1047F0008357910997FD019600E210E023E730E02E
:104800004CEB50E00C941F1B61E08091D3030E949D
:10481000051461E08091D4030E9405148091D303B4
:10482000082E000C990BFC01E855FF4FE491F0E0D5
:10483000EE0FFF1FE256FF4F259134913093DB03BB
:104840002093DA03FC01E657FF4FE491E093E00385
:104850008091D403082E000C990BFC01E855FF4F02
:10486000E491F0E0EE0FFF1FE256FF4FA591B491E7
:10487000B093DD03A093DC03FC01E657FF4FE49106
:10488000E093E1038C91E82BEC938091C803909125
:10489000C903892B21F00E94C10D0C94581B61E0C3
:1048A0008091D1030E94051461E08091D2030E949F
:1048B00005148091D103082E000C990BFC01E855DA
:1048C000FF4FE491F0E0EE0FFF1FE256FF4F2591FE
:1048D00034913093D7032093D603FC01E657FF4F62
:1048E000E491E093DE038091D203082E000C990B33
:1048F000FC01E855FF4FE491F0E0EE0FFF1FE25698
:10490000FF4FA591B491B093D903A093D803FC01B4
:10491000E657FF4FE491E093DF038C91E095E823A5
:10492000EC930C94581B8091C8039091C903892B78
:1049300031F08091EB039091EC030E943C15E091E3
:10494000DC03F091DD0390818091E1038095892360
:1049500080830C948C1B60E10C94A41B8FE90C9455
:10496000C91B8036910579F48091B3039091B4030B
:10497000409749F48091CF03813011F08FEA01C054
:1049800080E18093EA0312E00C94CC1B62E20C9469
:10499000ED1BE091DC03F091DD0390818091E10358
:1049A000892B80838091C8039091C903892B11F4CE
:1049B0000C94081C0E94D1140C94081C8EE391E006
:1049C0009093AE038093AD038091CC039091CD037F
:1049D000009711F00C94012908958F929F92AF9245
:1049E000BF92CF92DF92FF920F931F93CF93DF93EB
:1049F000E3EFF2E01382128288EE93E0A0E0B0E0F1
:104A000084839583A683B7832EE131E031832083AD
:104A100025EC30E03587248724EC30E03787268783
:104A200020EC30E0318B208B21EC30E0338B228B7B
:104A300022EC30E0358B248B26EC30E0378B268B54
:104A4000118E128E138E148E01EA13E0F801138278
:104A5000128284839583A683B7838EE291E091834B
:104A60008083C9EFD3E081EF93E09F8F8E8F85EF36
:104A700093E09D8F8C8F8DEE93E099A388A31AAE5F
:104A80001AAA1BAA1CAA1DAA80E090E0AFE7B3E413
:104A90008EAB9FABA8AFB9AF84E690E0A0E0B0E0EA
:104AA0008EA79FA7A8ABB9AB198E188ECC24C39440
:104AB000D12CDB8ECA8EFF24F394FBAE80E090E015
:104AC000A8ECB2E488839983AA83BB834DEC5CECA9
:104AD0006CEC7CE34C835D836E837F8340E050E02D
:104AE00060EA71E4488759876A877B878C879D874E
:104AF000AE87BF878BE097EDA3E2BBE3888B998BF2
:104B0000AA8BBB8B80E090E0A8E4B3E48C8B9D8BF8
:104B1000AE8BBF8B0E947B148EA49FA4A8A8B9A8BB
:104B2000DC01CB0188199909AA09BB098AA39BA3B7
:104B3000ACA3BDA3EDEAF3E01382128220E830E0DB
:104B40003583248380E490E09783868331872087B0
:104B500093878287168A1586148617861686F58AA5
:104B6000F48A8FEF9FEF938B828B918B808BF78AE8
:104B7000108E128E118E8EE391E091838083148EBD
:104B8000138E168F058F10A2178ECFEFC4A3C5A367
:104B9000C6A3C7A387E080A780E89AE1A6E0B0E0BB
:104BA00085AB96ABA7ABB0AF80EA96E8A1E0B0E0EA
:104BB00081AF92AFA3AFB4AF80E58093EB031092C7
:104BC000EC0382E090E00E946C2821E5FC01208348
:104BD0001182E0E9F3E0118210829383828380E402
:104BE00092E4AFE0B0E084839583A683B783D18657
:104BF000C086128682E0838783E08487C58784E04D
:104C000086871786108ADF91CF911F910F91FF90B1
:104C1000DF90CF90BF90AF909F908F900895AA1B88
:104C2000BB1B51E107C0AA1FBB1FA617B70710F097
:104C3000A61BB70B881F991F5A95A9F780959095C9
:104C4000BC01CD010895EE0FFF1F0590F491E02DFA
:104C500009945058BB27AA270E9441260C94BB27D1
:104C60000E94AD2738F00E94B42720F039F49F3F0E
:104C700019F426F40C94AA270EF4E095E7FB0C94A3
:104C8000A427E92F0E94CC2758F3BA1762077307AD
:104C90008407950720F079F4A6F50C94EE270EF41E
:104CA000E0950B2EBA2FA02D0B01B90190010C013C
:104CB000CA01A0011124FF27591B99F0593F50F454
:104CC000503E68F11A16F040A22F232F342F4427AC
:104CD000585FF3CF469537952795A795F0405395A4
:104CE000C9F77EF41F16BA0B620B730B840BBAF074
:104CF0009150A1F0FF0FBB1F661F771F881FC2F7DF
:104D00000EC0BA0F621F731F841F48F487957795F2
:104D10006795B795F7959E3F08F0B0CF9395880FAC
:104D200008F09927EE0F9795879508950E948027A0
:104D300008F481E008950E94AF260C94BB270E94DE
:104D4000B42758F00E94AD2740F029F45F3F29F0C6
:104D50000C94A42751110C94EF270C94AA270E94BD
:104D6000CC2768F39923B1F3552391F3951B550B89
:104D7000BB27AA2762177307840738F09F5F5F4F2E
:104D8000220F331F441FAA1FA9F335D00E2E3AF06D
:104D9000E0E832D091505040E695001CCAF72BD085
:104DA000FE2F29D0660F771F881FBB1F26173707D6
:104DB0004807AB07B0E809F0BB0B802DBF01FF2708
:104DC00093585F4F3AF09E3F510578F00C94A4271A
:104DD0000C94EF275F3FE4F3983ED4F386957795E4
:104DE0006795B795F7959F5FC9F7880F911D9695C1
:104DF000879597F90895E1E0660F771F881FBB1F1D
:104E0000621773078407BA0720F0621B730B840BC9
:104E1000BA0BEE1F88F7E09508950E941427689456
:104E2000B1110C94EF2708950E94D42788F09F5762
:104E300098F0B92F9927B751B0F0E1F0660F771FBE
:104E4000881F991F1AF0BA95C9F714C0B13091F0B4
:104E50000E94EE27B1E008950C94EE27672F782F7B
:104E60008827B85F39F0B93FCCF386957795679579
:104E7000B395D9F73EF490958095709561957F4FE5
:104E80008F4F9F4F0895E89409C097FB3EF490958B
:104E90008095709561957F4F8F4F9F4F9923A9F013
:104EA000F92F96E9BB279395F695879577956795A2
:104EB000B795F111F8CFFAF4BB0F11F460FF1BC0E6
:104EC0006F5F7F4F8F4F9F4F16C0882311F096E979
:104ED00011C0772321F09EE8872F762F05C0662327
:104EE00071F096E8862F70E060E02AF09A95660FE0
:104EF000771F881FDAF7880F9695879597F9089599
:104F0000990F0008550FAA0BE0E8FEEF16161706DA
:104F1000E807F907C0F012161306E407F50798F042
:104F2000621B730B840B950B39F40A2661F0232B5B
:104F3000242B252B21F408950A2609F4A140A695D7
:104F40008FEF811D811D089597F99F6780E870E0BC
:104F500060E008959FEF80EC089500240A941616EF
:104F6000170618060906089500240A941216130657
:104F7000140605060895092E0394000C11F48823E5
:104F800052F0BB0F40F4BF2B11F460FF04C06F5F01
:104F90007F4F8F4F9F4F089557FD9058440F551FD7
:104FA00059F05F3F71F04795880F97FB991F61F0AB
:104FB0009F3F79F087950895121613061406551F22
:104FC000F2CF4695F1DF08C0161617061806991F8E
:104FD000F1CF86957105610508940895E894BB2783
:104FE00066277727CB0197F908950E94802708F458
:104FF0008FEF08950E940D280C94BB270E94AD27C7
:1050000038F00E94B42720F0952311F00C94A427C7
:105010000C94AA2711240C94EF270E94CC2770F33C
:10502000959FC1F3950F50E0551F629FF001729F4D
:10503000BB27F00DB11D639FAA27F00DB11DAA1F5C
:10504000649F6627B00DA11D661F829F2227B00DA9
:10505000A11D621F739FB00DA11D621F839FA00D34
:10506000611D221F749F3327A00D611D231F849F84
:10507000600D211D822F762F6A2F11249F575040DB
:105080009AF0F1F088234AF0EE0FFF1FBB1F661F56
:10509000771F881F91505040A9F79E3F510580F01F
:1050A0000C94A4270C94EF275F3FE4F3983ED4F3CD
:1050B000869577956795B795F795E7959F5FC1F7C3
:1050C000FE2B880F911D9695879597F908950E945C
:1050D0008027880B990B0895CF93DF938230910539
:1050E00010F482E090E0E0913704F091380420E081
:1050F00030E0C0E0D0E0309711F140815181481795
:105100005907C0F04817590761F4828193812097AD
:1051100019F09B838A832BC09093380480933704C3
:1051200026C02115310519F04217530718F49A01CA
:10513000BE01DF01EF010280F381E02DDCCF2115FC
:10514000310509F1281B390B2430310590F41296F2
:105150008D919C9113976115710521F0FB0193834B
:10516000828304C09093380480933704FD01329603
:1051700044C0FD01E20FF31F819391932250310946
:105180002D933C933AC02091350430913604232B63
:1051900041F42091020130910301309336042093B1
:1051A000350420910001309101012115310541F4B0
:1051B0002DB73EB74091040150910501241B350BDA
:1051C000E0913504F0913604E217F307A0F42E1BAA
:1051D0003F0B2817390778F0AC014E5F5F4F24175B
:1051E000350748F04E0F5F1F509336044093350447
:1051F0008193919302C0E0E0F0E0CF01DF91CF9185
:1052000008950F931F93CF93DF93009709F48CC0F9
:10521000FC013297138212820091370410913804F6
:105220000115110581F420813181820F931F209196
:105230003504309136042817390779F5F093360490
:10524000E093350471C0D80140E050E0AE17BF07CD
:1052500050F412962D913C911397AD012115310513
:1052600009F1D901F3CF9D01DA01338322836081F3
:105270007181860F971F8217930769F4EC012881CB
:105280003981260F371F2E5F3F4F318320838A815C
:105290009B8193838283452B29F4F0933804E09318
:1052A000370442C01396FC93EE931297ED01499197
:1052B00059919E01240F351FE217F30771F4808185
:1052C0009181840F951F029611969C938E938281F3
:1052D000938113969C938E931297E0E0F0E0D801AF
:1052E00012968D919C911397009719F0F8018C01FB
:1052F000F6CF8D919C9198012E5F3F4F820F931FA7
:1053000020913504309136042817390769F4309715
:1053100029F4109238041092370402C013821282CA
:105320001093360400933504DF91CF911F910F91B4
:10533000089581E090E0F8940C941E2ADC0101C0ED
:105340006D9341505040E0F70895F999FECF92BD1A
:1053500081BDF89A992780B50895262FF999FECF37
:105360001FBA92BD81BD20BD0FB6F894FA9AF99A82
:105370000FBE01960895052E97FB1EF400940E941F
:10538000D22957FD07D00E94ED2907FC03D04EF427
:105390000C94D22950954095309521953F4F4F4F11
:1053A0005F4F089590958095709561957F4F8F4FD1
:1053B0009F4F08950E940F2AA59F900DB49F900DB6
:1053C000A49F800D911D11240895B7FF0C94DA2934
:1053D0000E94DA29821B930B0895A1E21A2EAA1BC0
:1053E000BB1BFD010DC0AA1FBB1FEE1FFF1FA21795
:1053F000B307E407F50720F0A21BB30BE40BF50B92
:10540000661F771F881F991F1A9469F7609570951A
:10541000809590959B01AC01BD01CF010895A29F9D
:10542000B001B39FC001A39F700D811D1124911D78
:10543000B29F700D811D1124911D089515E0C3E9DF
:10544000D5E004C0FE010E9423262196C439D1076D
:06545000C9F7F894FFCF3C
:1054560000003904800001000000710177017F011E
:1054660084018B01900196019B0100000000970EBC
:10547600130E600E3E0E520EDE0E00000000F30B01
:10548600C30BBB0BAC0B9E0B9D0B00000000EB0788
:10549600130E0211C00AB90A910AAD0AA10AC10A7D
:1054A600900AC0113F157310B710B7099909220960
:1054B600C3080000C842CDCCCC3C0000A0410D0A78
:1054C60000526561647900507265486561740053E5
:1054D6006F616B005265666C6F7700436F6F6C008F
:1054E600446F6E652100486F7421004572726F72B9
:1054F600006E616E00696E66006F7666002E0000B3
:00000001FF
